:020000040800F2
:10000000E807002091020008A1210008511C000807
:100010009D210008890400082D250008000000002B
:10002000000000000000000000000000A9210008FE
:100030008D04000800000000A5210008C921000867
:10004000AB020008AB020008AB020008AB020008DC
:10005000AB020008AB020008AB020008AB020008CC
:10006000AB020008AB020008AB020008AB020008BC
:10007000AB020008AB020008AB020008AB020008AC
:10008000AB020008AB020008AB020008AB0200089C
:10009000AB020008AB020008AB020008AB0200088C
:1000A000AB020008AB020008AB020008AB0200087C
:1000B000AB020008AB020008AB020008AB0200086C
:1000C000AB020008AB020008AB020008AB0200085C
:1000D000AB020008AB020008AB020008AB0200084C
:1000E000AB020008AB020008AB020008AB0200083C
:1000F000AB020008AB020008AB020008AB0200082C
:10010000AB020008AB020008AB020008AB0200081B
:10011000AB020008AB020008AB020008AB0200080B
:10012000AB020008AB020008AB020008AB020008FB
:10013000AB0200080000000000000000AB02000855
:10014000AB020008AB020008AB020008AB020008DB
:10015000AB020008AB020008AB020008AB020008CB
:10016000AB020008AB020008AB020008AB020008BB
:10017000AB020008AB020008AB0200080000000060
:1001800000000000AB0200080000000000000000BA
:10019000AB0200080000000000000000AB020008F5
:1001A000000000000000000000000000AB0200089A
:1001B000AB020008AB020008AB020008AB0200086B
:1001C000AB02000800F002F800F052F814A696E81E
:1001D000000CB244B344DA4501D100F049F8BAE862
:1001E0000F000FA696E83000A5EB040504EB060708
:1001F000AAEB0704A7F101074FEA15154FEA3414DB
:10020000A4F10104AC4201D300F032F813F0010F65
:1002100018BFFB1A43F0010300F001F8DBE71847B1
:10022000BC2B0000DC2B0000103A24BF78C878C13A
:10023000FAD8520724BF30C830C144BF04680C60EC
:1002400070470000704700000023002400250026AE
:10025000103A28BF78C1FBD8520728BF30C148BF29
:100260000B6070471FB502F09BFD1FBD10B510BDA0
:1002700000F0D0F81146FFF7F5FF02F059F900F051
:10028000EEF803B4FFF7F2FF03BC00F0F5F800004E
:100290000948804709480047FEE7FEE7FEE7FEE71A
:1002A000FEE7FEE7FEE7FEE7FEE7FEE70448054956
:1002B000054A064B7047000071220008C50100087E
:1002C000E8010020E8070020E8030020E803002000
:1002D00053EA020C00F069802DE9F04B4FF0000664
:1002E000002B1FBFB3FA83F503FA05F424FA05F6D1
:1002F0005E4012BF1643B2FA82F502FA05F4C5F168
:1003000020051EBF22FA05FC44EA0C04203556EAFB
:10031000044C4FEA144418BF641C4FF000084FF01F
:100320000009904271EB030C39D3002919BFB1FACF
:1003300081F701FA07F6B0FA80F700FA07F6C7F17D
:1003400020071EBF20FA07FC46EA0C062037B6FB42
:10035000F4FCA7EB0507103F07F01F0BCBF12006BD
:100360002CFA06F60CFA0BFB44BFB3460026202FEE
:10037000A4BF5E464FF0000B5BEA060C08BF4FF0CF
:10038000010B19EB0B0948EB0608ABFB027C06FBE3
:1003900002CC0BFB03CCC01B71EB0C01C1E70B467D
:1003A000024641464846BDE8F08B13B5084318BFE6
:1003B0004FF0FF300146AFF30080BDE81C407047AE
:1003C0004FF0000200B5134694469646203922BFEE
:1003D000A0E80C50A0E80C50B1F12001BFF4F7AF39
:1003E000090728BFA0E80C5048BF0CC05DF804EB1B
:1003F000890028BF40F8042B08BF704748BF20F889
:10040000022B11F0804F18BF00F8012B7047704786
:1004100070477047754600F02BF8AE4605006946F8
:10042000534620F00700854618B020B5FFF73EFF81
:10043000BDE820404FF000064FF000074FF00008E5
:100440004FF0000BAC46ACE8C009ACE8C009ACE822
:10045000C009ACE8C00921F007018D46704710B50E
:100460000446AFF300802046BDE81040FFF709BF07
:10047000004870471000002001491820ABBEFEE77D
:100480002600020070470000FEE7000070470000F1
:10049000F0B581B00022009290F83C20012A03D1EF
:1004A000022001B0F0BD00BF0F6801231FFA87FCD6
:1004B00080F83C304FEA4C0307EB470213FA87F30E
:1004C0001024092F88BFA3F11E0288BF0C240368E3
:1004D0004FF0070E1E590EFA02F5AE431E518E68FC
:1004E0001D5906FA02F22A431A514968062907D80B
:1004F00001EB81014A1F194651F8345F0FE000BF3C
:100500000C2901EB810105D8A1F12302194651F80C
:10051000305F04E0A1F14102194651F82C5F1F261B
:10052000964025EA06060E600CFA02FE42F2043CF2
:100530000A68C4F2010CACF5417642EA0E02B342FD
:100540000A6005D0002180F83C10002001B0F0BD09
:100550001221112FC1F2000118BF8F423AD1DCF8ED
:1005600000208F4222F48002CCF80020DCF800202A
:1005700042F40002CCF80020E4D140F20801C2F2BB
:10058000000109684DF68362C4F21B32A1FB02121E
:10059000910C01EB81014900009100990029D1D013
:1005A00000990139009100990029CBD000990139B7
:1005B000009100990029C5D0009901390091009956
:1005C0000029BFD000990139009100990029E7D195
:1005D000B8E700BF122FB5D1DCF8001021F40001FC
:1005E000CCF80010DCF8001041F48001CCF80010C9
:1005F000A8E70000002804BF0120704710B5016C77
:1006000000293DD0016CC90645D4016C41F20212AB
:100610009143023142F204320164C4F201021168D2
:1006200021F440311160136890E812102343D0F890
:1006300010E013604A68012422F480724A604A681C
:10064000C0F6007442EA0E224A604A6822F0407204
:100650004A604A6842EA0C024A608A6822F40062F0
:100660008A60C2688B681A438A60826A8B68A24279
:1006700023F070638B608B6810D123F0405216E03A
:10068000044600F065F820460021616484F83C10BF
:10069000016CC906B9D5012153E000BF1A438A6035
:1006A0008A6822F040528A60C26A8B681A438A6064
:1006B0008A6822F002028A608A68037E90F82040ED
:1006C00042EA43028A604A6884B142F400624A60A6
:1006D0004A684EF2000322F460424A60426ACFF652
:1006E000FF734C6803EB4232224301E022F40062C4
:1006F0004A60CA6A40F2000C22F47002CA62C369FE
:100700004269CFF6F07CCC6A0CEB03532343CB62F7
:100710008B6823F400738B6090F830308C6844EA67
:1007200043238B608B6823F480638B608B6843EA80
:1007300082228A6000214164026C012363F301027A
:100740000264002280F83C20BDE810400846704753
:1007500080B586B042F200010068C4F201010022B7
:1007600088420592CDE903220292019202D006B09E
:1007700080BD00BF43F630000092C4F2020043691E
:1007800043F480734361436903F480730093009BD7
:100790000092036843F001030360006800F0010069
:1007A000009000980320CDE9010001F5604001A907
:1007B000039200F017F806B080BD0000B0B5044603
:1007C00000F0E6F8054640F20000C2F200000078B2
:1007D000611C18BF044400BF00F0DAF8401BA042BF
:1007E000FAD3B0BD2DE9F04F83B000F1200200F143
:1007F0003E4741F60005009207F1FF77C4F202057B
:1008000007224FEAB726A84208BF062200254FF06C
:1008100000084FF00009062E38BF4FEAB7220192B8
:100820000AE000BF09F1010908F10208B9F1100F4F
:1008300005F1040500F0A2800F68012202FA09FE0A
:1008400017EA0E0AEED0D1F804C003220CF0030719
:100850007E1E02FA08F4012E6FEA040B12D8846897
:10086000CE6804EA0B0406FA08F634438460446850
:1008700024EA0E06CCF3001404FA09F42643466079
:1008800004E000BF032F01D103271EE0C6688C6877
:1008900006EA0B0604FA08F42643022FC66014D1B8
:1008A0006FF00302009E02EA590756F807C005F0F0
:1008B0001C040F220B69A2402CEA0202A3401A4337
:1008C000F251D1F804C00CF00307026807FA08F3EC
:1008D00002EA0B021A431CF4403F0260A2D000223D
:1008E00043F644030292C4F202031A6843F600443A
:1008F00042F480421A601A68C4F2010402F4804291
:100900000292029A29F003024FF6084C2244CFF6D5
:10091000FF7C52F80C3005F00C070F26BE40B343A5
:10092000019E06FA07F73B4342F80C30A2684B6879
:1009300042EA0A0743F60C4CDE0258BF22EA0A07D5
:10094000A760C4F2010CDCF800209E0242EA0A070C
:1009500058BF22EA0A07CCF8007062689E0342EA98
:100960000A0758BF22EA0A0767602268DB0342EAE7
:100970000A0758BF22EA0A07276053E703B0BDE819
:10098000F08F0000002A08BF090481617047000051
:1009900040F2E410C2F2000000687047002804BF73
:1009A00001207047F0B581B0044690F83D0028B9A9
:1009B000002084F83C00204600F0CEF9242084F882
:1009C0003D002068016821F001010160016841F4E7
:1009D00000410160016821F40041016000F006FB64
:1009E000636848F2A16CC0F2010C40F60011C0F23D
:1009F0003D0163453CBF48F28041C0F21E01884280
:100A000002D2012001B0F0BD4DF68361C4F21B316A
:100A1000A0FB01122168970CD1F804E04FF4967600
:100A20002EF03F0545EA92454D60774348F638166B
:100A30000D6AC0F24106A7FB067625F03F07634525
:100A400038BF960C721C3A430A62CA6948F2A06623
:100A50004CF6FF77C0F20106B34222EA07020BD838
:100A600001385B00B0FBF3F001306FF31F30042856
:100A700098BF04201BE000BFA768013857B11927B1
:100A80007B43B0FBF3F001306FF31F3070B100F522
:100A9000804007E003EB4303B0FBF3F001306FF35A
:100AA0001F3018B100F5004001E000BF01201043E5
:100AB000C8610868D4E9072320F0C0001043184338
:100AC0000860886848F2FF3204F10C0790438CCF2D
:100AD00018431043A6698860C86820F0FF003843B7
:100AE0003043C860086840F0010008600020202101
:100AF000206484F83D10206384F83E0001B0F0BD0E
:100B00002DE9F04784B0994616460F460446FFF794
:100B10003FFF94F83D10202927D10546206800BFEB
:100B2000816989071CD5FFF733FF411B20681A290B
:100B3000F6D381698907F3D500202021206384F84A
:100B40003D1084F83E00206C04F13C0A40F0200087
:100B50002064022000218AF8001004B0BDE8F0876C
:100B6000A2461AF83C1F012904D1022004B0BDE8B6
:100B7000F08700BF01228AF800200368DDE90D1824
:100B80000C9ADB0703D1036843F001030360036899
:100B900023F400630360222084F83D00402084F8A1
:100BA0003E000020206462626185608D39462085A8
:100BB0000020CFF6FF70E062204632464B46CDE97A
:100BC000008501F047F818B1012004B0BDE8F087B6
:100BD000208D08B3022813D0012835D121680A6876
:100BE00022F480620A60002203924A6903928A69B1
:100BF0000392039A0A6842F400720A602CE000BF74
:100C000021680A6822F480620A600A6842F400627D
:100C10000A60002203921AE00020039020684169D4
:100C20000391816903910399016841F400710160A6
:100C3000202084F83D00002084F83E0000218AF83E
:100C4000001004B0BDE8F0870021039121684A69D3
:100C500003928969039103990427C0F201070CE00C
:100C600010690870606A218D01306062481E20851D
:100C7000618D013961850104DAD080B203280FD873
:100C800002284AD001282DD1204641462A4601F0AB
:100C9000BDF9002898D12068616A0069E1E700BFCA
:100CA000204641462A4601F0B1F900287FF48CAF76
:100CB0002068616A00690870606A2268411C208DA2
:100CC000616201382085638D013B638553695B0751
:100CD000D1D580B20328C3D1106820F480601060A1
:100CE000BEE700BF2046394600224346009501F08A
:100CF0003BF800287FF468AF2068616A026822F43C
:100D00008062026000690870606A218D0130606253
:100D1000481E2085608D01386085204639460022B6
:100D20004346009501F020F800287FF44DAF20687D
:100D3000616A026842F40072026000690870606AC9
:100D40002268411C6162218D01392185618D013943
:100D500061851169417085E7B0B586B045F2004103
:100D60000068C4F20001002488420594CDE90344E0
:100D70000294019402D006B0B0BD00BF43F6300526
:100D80000094C4F20205286840F002002860286838
:100D900000F0020000900098C02001901220CDE9E0
:100DA0000204032004900420059001F5D83001A925
:100DB000FFF718FD0094286940F4001028612869A5
:100DC00000F400100090009806B0B0BD40F20000A2
:100DD00040F2E411C2F20000C2F2000100780A6899
:100DE000104408607047000070B540F20006C2F27F
:100DF000000640F208013278C2F200014FF47A7323
:100E00000968B3FBF2F20446B1FBF2F1084600F0C8
:100E100055FB0F2C4FF0010508D838B94FF0FF30C3
:100E200021460022002500F003F87460284670BDBA
:100E300010B54EF60C5CCEF2000CDCF80030C3F3BB
:100E4000022E8EF00704042C28BF0424BEF10303F5
:100E50004FF0FF3E0EFA04F438BF0023A14399403F
:100E60000EFA03F39A43114300F00F0200F16043BE
:100E70000901043A03F564436244002848BF02F1C3
:100E80000C03197010BD0000002804BF012070473A
:100E90002DE9F04143F60808C4F202080446D8F8E8
:100EA000F8030D4600F00F00814207D988F8F85387
:100EB000D8F8F80300F00F00A84277D12068810726
:100EC00017D5410705D5D8F8001041F4E051C8F80E
:100ED0000010010705D5D8F8001041F46041C8F8AA
:100EE0000010D8F80010A26821F0F0011143C8F8F2
:100EF0000010C00740D1D8F8F80300F00F00854279
:100F000007D288F8F853D8F8F80300F00F00A84289
:100F10004CD12068410707D5D8F80010E26821F4C9
:100F2000E0511143C8F80010000708D5D8F80000B8
:100F3000216920F4604040EAC100C8F8000000F0D8
:100F40007DF8D8F8001042F6C452C1F30311C0F680
:100F50000002515C40F2080220FA01F140F2040064
:100F6000C2F200000068C2F200021160FFF73CFF0D
:100F70000020BDE8F08100BF6068811E022907D211
:100F800058F8081C89015CBF0120BDE8F08111E020
:100F9000012807D158F8081C89035CBF0120BDE86F
:100FA000F08107E058F8081C890703D40120BDE848
:100FB000F08100BFD8F8001021F003010843C8F801
:100FC0000000FFF7E5FC064641F28837D8F800003C
:100FD000616800F00C00B0EB810F8CD0FFF7D8FCFB
:100FE000801BB842F2D90320BDE8F08140F208002E
:100FF00043F60801C2F20000C4F202010068096869
:1010000042F6D452C1F38221C0F60002515CC840BE
:101010007047000040F2080043F60801C2F20000E9
:10102000C4F202010068096842F6D452C1F34231A9
:10103000C0F60002515CC8407047000010B543F68E
:101040000404C4F202046068C0F3810142F200406B
:10105000C0F2F400DFE801F04202081841F200207B
:10106000C0F27A0010BD00BF216801F03F02216884
:1010700023684902C3F3881116D4A1FB00010023A1
:10108000FFF726F917E000BF216801F03F02216851
:1010900023684902C3F3881114D4A1FB0001002383
:1010A000FFF716F915E000BF41F20020C0F27A0008
:1010B0004843B0FBF2F021680222C1F3014102EB88
:1010C000410109E041F20020C0F27A004843B0FB40
:1010D000F2F02168C1F30271B0FBF1F010BD000025
:1010E000002804BF012070472DE9F04182B004467A
:1010F000007843F60006C007C4F202060CD0B068C0
:1011000000F00C00042840F089803068800303D58B
:101110006068002800F050812078800723D5B068EF
:1011200010F00C0F11D0B06800F00C00082802D1AC
:101130007068400209D5B06800F00C000C2840F03F
:101140009F807068400200F19B803068800703D563
:10115000E068012840F030813068216920F0F80013
:1011600040EAC10030602078000713D4207840079F
:101170002AD4A569002D00F01A81B06800F00C0097
:10118000082840F0AB80012D40F0E880012002B03B
:10119000BDE8F0816069002840F20000C4F24720F9
:1011A00000F088800121C0F8801EFFF7F1FB0546A2
:1011B000706F8007DAD4FFF7EBFB401B0228F7D9EA
:1011C000032002B0BDE8F081306C5FEAC0080AD4A9
:1011D00000200190306C40F080503064306C00F0A2
:1011E00080500190019847F20007C4F20007386868
:1011F000C00537D4386840F480703860FFF7C8FB0A
:10120000054600BF3868C0052CD4FFF7C1FB401B62
:101210000228F7D9032002B0BDE8F081B06800F0E1
:101220000C00082803D1706840023FF56EAFB0682B
:1012300000F00C000C2803D1706840023FF565AF48
:1012400061683068B1F5803F07D0B1F5A02F40F05C
:10125000CB8040F480203060306840F480303060D3
:10126000CBE000BFA168306F012905D0052957D117
:1012700040F004003067306F40F00100306759E003
:10128000E068002800F09C800020C4F24720012183
:101290000160FFF77DFB0546306880073FF55CAFD6
:1012A000FFF776FB401B02284FF00300F4D902B091
:1012B000BDE8F0810021C0F8801EFFF769FB0546FC
:1012C000706F80077FF552AFFFF762FB401B02286B
:1012D000F6D9032002B0BDE8F08100BF0027C4F2B8
:1012E000472700203866FFF753FB022D05460BD138
:1012F0003068800140F19280FFF74AFB401B0228D2
:101300004FF00300F4D9D2E7306880014FD5FFF7E2
:101310003FFB401B02284FF00300F5D9C7E700BF91
:1013200020F001003067306F002920F004003067A2
:1013300000F09880FFF72CFB054641F2883700BF8C
:10134000306F800700F1A080FFF722FB401BB842FE
:10135000F6D9032002B0BDE8F08100BF7068E169F2
:1013600000F480028A4227D1216A00F03F028A42BB
:1013700022D147F6C071626A0140B1EB821F1BD1D6
:10138000A16A4FF6FF73C903994300F44032A1F5F7
:1013900080318A4210D1E16A00F07062B2EB016FD5
:1013A0000AD1216B00F0E040B0EB017F04D10020B6
:1013B00002B0BDE8F08100BF012002B0BDE8F081BD
:1013C0000020C4F2472000210160FFF7E1FA054642
:1013D000306880077FF5C7AEFFF7DAFA401B0228B6
:1013E0004FF00300F4D962E720F4803030603068B9
:1013F000002920F48020306050D0FFF7C9FA05465C
:10140000306880033FF588AEFFF7C2FA401B6428BE
:10141000F6D9032002B0BDE8F08100BF04F11C053D
:101420002FCD246B084340EA8210D9034FF6FF7298
:101430009143A1F5803140EA0560084340EA047019
:10144000706001203866FFF7A3FA04463068800117
:10145000ADD4FFF79DFA001B02284FF00300F5D929
:1014600025E700BFFFF794FA054641F2883700BF31
:10147000306F800708D5FFF78BFA401BB8424FF05A
:101480000300F5D913E700BFB8F1000F3FF571AEC7
:10149000306C20F0805030646BE600BFFFF778FAC4
:1014A000054600BF306880037FF536AEFFF770FA5F
:1014B000401B64284FF00300F4D9F8E6411E0020D9
:1014C000B0EB116F1CBF012070474EF21002CEF23C
:1014D000000251604EF62351CEF20001F0230B7052
:1014E000072190601160704790F83C20012A04BFEA
:1014F00002207047B0B501F108053CCDD1E900CE1E
:1015000023F47C5322F470521A432EF4F0431A430E
:101510002CF4E0431A4324F4C0431A432A43C96914
:1015200022F48042036811435964002180F83C1082
:101530000020B0BD90F83C20012A4FF0020254D0A8
:1015400010B580F83D200268D2F804E0D2F808C057
:101550000C682EF07003234341F2FF74C4F20004C0
:10156000A24253600EDC40F2FF73C4F200039A42C1
:1015700016DCB2F1804F2BD040F20043C4F20003DE
:1015800024E000BF40F2FF33C4F201039A4213DCAF
:1015900041F60003C4F200039A4219D0002313E07D
:1015A00040F60003C4F200039A4211D040F6004313
:1015B000C4F200030AE000BF44F20003C4F20103D6
:1015C0009A4205D040F20043C4F201039A4204D18A
:1015D00049682CF08003194391600121002280F8B2
:1015E0003D1080F83C20BDE81040104670470000D8
:1015F00080B586B000210068C4F201010022884253
:101600000592CDE903220292019201D006B080BD7D
:1016100043F630000092C4F20200036843F0010375
:101620000360006800F00100009000984FF48070A3
:1016300001900220CDE902020120059001F58030E1
:1016400001A90492FFF7CEF806B080BD90F83C30B7
:10165000012B04BF022070474FEAB202032A00F2B6
:10166000FF802DE9F043DFE802F003B13F7F00BFC8
:10167000036840F200461C6A1A6A24F0020422F051
:1016800001021A621A46D3F804C052F818EF8F68A4
:1016900043F48065C4F20106B54244EA070405D16B
:1016A000CF6824F00C0427F004073C430F68B542D0
:1016B00006D1D1E905582CF440762E4346EA080CB1
:1016C0002EF073063743C3F804C09F614F68096961
:1016D0005F631C629F6947F008079F619F6927F05D
:1016E00004079F61B1E000BF036840F200481C6A34
:1016F0001A6A24F4007422F480721A621A46D3F82B
:1017000004C052F81CEF8F6843F48065C4F20108EE
:10171000454544EA072408D1CF6840F2FF463F021E
:1017200024F4406427EA06063443D1F80090454586
:1017300006D1D1E905562CF440572E4347EA061C42
:101740002EF0730747EA0907C3F804C0DF614F684A
:101750000969DF631C62DF6947F00807DF61DF6941
:1017600027F00407DF6170E0036840F20045D3F81A
:1017700020C01A6A43F4806722F480521A621A4623
:101780005C6852F81C8FD1F800E08E68C4F2010545
:10179000AF4204D14D6924F4804444EA85142CF40A
:1017A000005747EA063728F4E64646EA0E265C600C
:1017B000DE614E6809691E641F62DF6947F40067D5
:1017C000DF61DF6927F48067DF613DE0036840F295
:1017D00000481C6A1A6A24F0200422F010021A62DF
:1017E0001A46D3F804C052F818EF8F6843F48065A6
:1017F000C4F20108454544EA071407D1CF686FF0E9
:10180000400624F0C00406EA07163443D1F80090DD
:10181000454506D1D1E905562CF440672E4347EAE9
:10182000860C2EF4E64747EA0927C3F804C09F61F7
:101830004F6809699F631C629F6947F400679F6155
:101840009F6927F480679F6109021368194311603B
:101850000021BDE8F043002280F83C200846704794
:101860000121002280F83C2008467047002804BF70
:101870000120704710B5044690F83D0028B90020BB
:1018800084F83C00204600F01FF8022084F83D0058
:101890002068211D00F0F6FC012084F8460084F841
:1018A0003E0084F83F0084F8400084F8410084F84A
:1018B000420084F8430084F8440084F8450084F82A
:1018C0003D00002010BD000000680021C4F20101AD
:1018D000884218BF704781B00020009043F6440052
:1018E000C4F20200016841F001010160006800F0EB
:1018F00001000090009801B070470000002804BF6C
:101900000120704710B5044690F8410028B9002026
:1019100084F84000204600F021F8242084F841009B
:101920002068C16821F40051C160204600F08AFDA2
:101930002068016921F490410161416921F02A0187
:101940004161C16841F40051C16000202021606400
:1019500084F8411084F84210606310BD80B586B0F1
:10196000006844F20042C4F2000200219042CDE936
:101970000411CDE90211019128D044F60041C4F2CE
:10198000000188424AD1002043F630010090C4F2A1
:1019900002010A6942F400220A610A6902F4002283
:1019A0000092009A009008684FF4406240F00400F2
:1019B00008600868082100F00400009000980020EA
:1019C000C4F2020000F500601DE000BF43F63000E5
:1019D0000091C4F20200026942F40032026102691D
:1019E00002F400320092009A009101680C2241F04A
:1019F000010101600068072100F0010000900098DB
:101A00000020C4F2020001920222029200220392FC
:101A10000322CDE9042101A9FEF7E4FE06B080BD52
:101A20002DE9F04381B0044690F84200202809D106
:101A3000884600294FF0010018BF002A06D101B0E6
:101A4000BDE8F083022001B0BDE8F0830020222130
:101A50001D46606484F8421020631646FEF798FF26
:101A6000A685E685A1680746B1F5805F02D12069A9
:101A7000002851D046464FF00008E08D00284FD096
:101A800005F101090CE000BF406800266FF35F20FC
:101A900028F8020BE08D0138E085E08D00283FD06A
:101AA00020680168890617D4B9F1000F22D0002DF3
:101AB00000F0CA80FEF76CFFC01BA84200F2BC8099
:101AC0002068C168490744BF01685FEA01712FD4EB
:101AD00001688906EED500BF002ED5D0A168B1F50A
:101AE000805F15D009B9216991B1406800F07F008D
:101AF0000FE000BF01688906EED4016889065CBF6B
:101B000001685FEA8161E7D401688906F2D5E3E7FD
:101B1000406806F8010BBDE70026E08D0028AFD134
:101B20000020202184F8421001B0BDE8F08300BFFE
:101B3000002100910168009140680090009800BF6A
:101B4000206850E8030F216820F4907041E80302F8
:101B5000BAB3206850E8030F216820F4907041E880
:101B6000030272B3206850E8030F216820F49070DC
:101B700041E803022AB3206850E8030F216820F4EB
:101B8000907041E80302002ADAD11AE0206850E898
:101B9000050F216820F0010041E80502DAB1206854
:101BA00050E8050F216820F0010041E8050292B1DC
:101BB000206850E8050F216820F0010041E8050287
:101BC0004AB1206850E8050F216820F0010041E883
:101BD0000502002ADAD1206B012824D1206850E8C0
:101BE000030F216820F0100041E80302DAB12068F9
:101BF00050E8030F216820F0100041E8030292B181
:101C0000206850E8030F216820F0100041E803022B
:101C10004AB1206850E8030F216820F0100041E825
:101C20000302002ADAD1202084F842000020082193
:101C30002063616484F840000320202184F842106E
:101C400001B0BDE8F08300BFFEF7A2FEF4E700009C
:101C5000FEE700002DE9F04782B0044600689A468E
:101C60000B9D0A9E0368914643F4806202600268FD
:101C70000F4642F48071016020464FF001110022AE
:101C80003346009500F070F850B120680068C00538
:101C900044BF4FF400702064032002B0BDE8F08719
:101CA00040F202082068C0F2010807F0FE07076151
:101CB0002046414632462B4600F03CF920B1012037
:101CC00002B0BDE8F08700BF0020019020682A46DE
:101CD000416901918069314601900198204600F0E8
:101CE000DDF9B0B92068BAF1010F09D04FEA192126
:101CF0000161204631462A4600F0D0F948B92068F3
:101D00005FFA89F10161204631462A4600F0C6F9A2
:101D100060B1206C0428D2D12068016841F40071C0
:101D20000160012002B0BDE8F08700BF20680022FA
:101D30000168334641F48071016020464FF0011183
:101D4000009500F011F800289FD147F0010C27689A
:101D50002046414632462B46C7F810C002B0BDE8C7
:101D6000F04700F0E7B800002DE9F04105460068B3
:101D70001E46144601F47F0201338FB242D0DDF8D3
:101D80001880B2F5803F40F0878040693840C01B22
:101D9000B0FA80F04009844240F0C8804EB924E097
:101DA00040693840C01BB0FA80F04009844240F0DE
:101DB000BD80FEF7EDFDA0EB08012868B142EFD928
:101DC00041693940C91BB1FA81F149098C42E7D117
:101DD0009BE000BF40693840C01BB0FA80F040096A
:101DE00084424FF0000040F0A280FEF7D1FD286849
:101DF00041693940C91BB1FA81F149098C42E9D1E5
:101E000083E000BFB2F5803F24D100BF4169394073
:101E1000C91BB1FA81F149098C4240F087804169C0
:101E20003940C91BB1FA81F149098C4240F07E80EA
:101E300041693940C91BB1FA81F149098C4275D118
:101E400041693940C91BB1FA81F149098C42DDD0A1
:101E50006CE000BF81693940C91BB1FA81F14909C1
:101E60008C4263D181693940C91BB1FA81F14909BA
:101E70008C425BD181693940C91BB1FA81F14909B2
:101E80008C4253D181693940C91BB1FA81F14909AA
:101E90008C42DFD04AE000BF80693840C01BB0FAF6
:101EA00080F04009844241D146B923E0806938403E
:101EB000C01BB0FA80F04009844237D1FEF768FDBC
:101EC000A0EB08012868B142F0D981693940C91BEB
:101ED000B1FA81F149098C42E8D116E080693840B5
:101EE000C01BB0FA80F0400984424FF0000018BFD8
:101EF000BDE8F081FEF74CFD286881693940C91BB7
:101F0000B1FA81F149098C42E8D1002020212863EF
:101F100085F83D1085F83E00296C41F020012964C8
:101F200085F83C000120BDE8F08100BF0020BDE83D
:101F3000F0810000F0B581B0044600681D46436999
:101F40008FB203EA0701B94202D1002001B0F0BD0F
:101F50004169164601323CD0490512D47EB300BF18
:101F6000FEF716FD411B2068B14203D94169394093
:101F7000B9422BD141693940B942E6D0416949059E
:101F8000EED5016841F4007101606FF48061416138
:101F9000042000212022216384F83D2084F83E1093
:101FA000226C1043206484F83C10012001B0F0BD85
:101FB00041693940B942C8D041694905E1D4FEF7C9
:101FC000E7FC206841693940B942F1D02020E0E7C0
:101FD00041694905D5D441693940B942B5D0416913
:101FE0004905CED441693940B942AED0416949056D
:101FF000C7D441693940B942A7D041694905C0D425
:1020000041693940B942E3D19FE7000070B5044609
:102010000068154650F8143F5A063DD40E4629B9BB
:1020200026E000BF50F8141F490635D40168C906E0
:1020300021D4FEF7ADFC411B2068B142F2D94169C1
:102040004906EFD400202021206384F83D1084F855
:102050003E00206C40F0200018E000BFFEF798FC26
:10206000206850F8141F4906ECD50168490613D4BE
:102070000168C906F2D56FF010010160002020212F
:10208000206384F83D1084F83E00206C206400201A
:1020900084F83C00012070BD002070BD70B503685D
:1020A000044653F8140F000611D40E46481C29D0DC
:1020B00086BB00BF1868400527D4FEF769FC23687B
:1020C00053F8140F000637D518680006F2D5002023
:1020D00070BD00BF18680006F9D41868400514D414
:1020E00018680006F3D4186840050ED41868000676
:1020F000EDD41868400508D4186800064FF00000B9
:1021000048BF70BD18684005E4D56FF48060186062
:10211000042012E0154603E053F8140F0006D6D44D
:1021200018684005F1D4FEF733FC401B2368B04229
:10213000F2D958690006EFD4202000212022216323
:1021400084F83D2084F83E10226C10432064012066
:1021500084F83C1070BD000080B584B040F29C1043
:10216000C2F200000DF1070109226423FFF758FCB9
:1021700020B1002080B204B080BD00BF9DF80700F0
:1021800059284FF00000F5D19DF80810592908BFD3
:10219000BDF8090080B204B080BD0000FEE7000079
:1021A000FEE70000704700007047000040F20C128C
:1021B000C2F2000200EB80004FF4FA71126801EBEA
:1021C0004000506370470000FEF700BE70B594B049
:1021D00007AC20463421FEF7F3F8002543F6400013
:1021E0000695CDE90455CDE902550195C4F20200EA
:1021F0000168012241F0805101600068022600F070
:1022000080500190019847F200000195C4F200004F
:10221000016862F38F310160006800F44040019072
:10222000019810200B900F904FF4A870109004208C
:10223000CDE91106204607960A92CDE90D65139661
:10224000FEF74EFF10B172B6FEE700BF0F20CDE9DA
:1022500002064FF48050CDE9050502A8022104953D
:10226000FEF712FE10B172B6FEE700BF14B070BDEB
:102270004EF68850CEF20000016841F47001016012
:102280007047000010B540F6FF3E0368C4F2000E30
:1022900040F2004C7045C4F2010C25DCB0F1804FD7
:1022A0002FD040F20042C4F20002904229D040F602
:1022B0000002C4F20002904223D041F6FF72C4F241
:1022C0000002904227DC70453ADCB0F1804F5BD0D1
:1022D00040F20042C4F20002904255D040F60002A3
:1022E000C4F200024EE000BF40F60042C4F2000219
:1022F000904206D0604504D00022C4F20102904210
:10230000DBD14A6823F07003134341F6FF72C4F235
:1023100000029042D7DD43F6FF72C4F20102904200
:1023200020DC42F20002C4F2000290422CD00022D3
:10233000C4F20102904227D0604525D028E000BFBA
:1023400040F60042C4F2000290421DD041F6000265
:10235000C4F20002904217D041F60042C4F20002DB
:1023600010E000BF44F20002C4F2010290420BD020
:1023700044F60002C4F20102904205D044F2004249
:10238000C4F20102904203D1CA6823F4407313439C
:1023900023F080024B69D1F800E08C681A43026098
:1023A000C46240F48062C0F828E0624504BF096955
:1023B0000163012141610169C90708BF10BD0169BD
:1023C00021F00101016110BD80B584B000208DF8BD
:1023D0000E00ADF80C00032003A9CDE9001040F277
:1023E000B8004FF0640CC2F20000B42107220123B0
:1023F000CDF808C0FEF784FB20B19FED110A04B0B0
:1024000080BD00BFBDF80C0000F0CAFA9FED080BBC
:1024100053EC102B00F0D8FA9FED070B53EC102B68
:1024200000F016FA00F0E2F900EE100A04B080BDE8
:102430007B14AE47E17A943F66666666661271C0A9
:1024400000007AC4B0B50446006804F108030ECB5E
:102450000569194325F440552A4302616269E3691D
:102460001143C268194349F20C639A431143C16096
:102470004169A26921F4407141F20043114340F4E3
:102480008062C4F201039A42416103D1FEF7C2FDAA
:1024900002E000BFFEF7AAFDE1694FF69C75636894
:1024A0001922C0F6FF75B1F5004FA0FB02011FD144
:1024B0005A00DB0FFDF70CFF48F21F51C5F2EB117C
:1024C000A0FB01235A0905F1805302FB03003223CC
:1024D00003EBC000A0FB01014FF4F87000EA1110FB
:1024E00000EB0210C1F34211084421688860B0BDBE
:1024F0009A009B0FFDF7ECFE48F21F51C5F2EB115D
:10250000A0FB01235A0902FB0500322303EB001054
:10251000A0FB0101F02000EA511000EB0210C1F312
:102520004311084421688860B0BD0000FEE7000048
:1025300092B040F20008C4F20208FFF747FE0027FD
:1025400043F630000597CDE90377CDE90177099788
:10255000C4F202000168002241F004010160016838
:10256000202401F00401099109990997016841F0BB
:1025700080010160016801F08001099109990997C2
:10258000016841F001010160016801F00101099158
:1025900009990997016841F0020101600068202152
:1025A00000F00200099009984046FEF7EBF908F5A3
:1025B00080652846022100224FF00209FEF7E2F969
:1025C0004FF4005001904FF4041001AECDE9020722
:1025D00008F500603146FEF705F9019401244046F4
:1025E0003146CDE902470497FEF7FCF8284631460C
:1025F000CDE90194CDE90377FEF7F4F840F27000DD
:102600000123A8F56041C2F20000C0F600730497F0
:102610004FF48032077680F82070C0E90A37C46131
:1026200080F8307080E88600C0E903774461FDF7E8
:10263000E1FF18B172B600BFFEE700BF40F27000C4
:10264000C2F2000001A9CDE901740397FDF720FF54
:1026500010B172B6FEE700BF40F25410A8F5DE31AB
:10266000C2F2000000240C234FF4E13280E816008F
:10267000C0E90344C0E90534C461FFF73FF918B16C
:1026800072B600BFFEE700BF40F2B800A8F5D63131
:10269000C2F2000048F2A0624FF48043C0F201028F
:1026A00080E81600C0E90343C0E90544C0E90744D7
:1026B000FEF774F910B172B6FEE700BF40F20C10DD
:1026C0000021A8F58032C2F200004FF6FF73CDE979
:1026D00010110791C0E90021C0E90213C0E90411FB
:1026E0008161FFF7C3F818B172B600BFFEE700BF03
:1026F00040F20C10C2F2000010A9FEF71BFF18B147
:1027000072B600BFFEE700BF6020099040F20C10D7
:102710000024C2F2000009A90022CDE90A44CDE953
:102720000C44CDE90E44FEF791FF18B172B600BF1C
:10273000FEE700BF4FF40050069040F20C10C2F2CA
:10274000000001A90594CDE90344CDE901440894B2
:10275000FEF7CAFE10B172B6FEE700BF40F20C10E1
:10276000C2F20000FEF744FF40F29C10A8F5DA31F7
:10277000C2F2000000230C274FF4E13280E80E0083
:10278000C0E90333C0E90573C361FFF7B7F818B1B7
:1027900072B600BFFEE700BF9FED139AFFF714FE6D
:1027A000B0EE408AFFF7D8FCB4EE498A80B2F1EE71
:1027B00010FA4FF00001C8BF0121B0F5FA6F4FF0D9
:1027C000000038BF012011EA0005284618BF5A2032
:1027D000FFF7ECFC404602212A46FEF7D3F86420BE
:1027E000FDF7ECFFDAE700BF0000484221F00042AD
:1027F00001F00043A2F16052B2F5801F28BFD2F170
:102800007F6C0BD95FEA001C43EAC20242EB5070B6
:1028100018BF704728BF20F001007047B2F5801F35
:10282000BCBF184670474FEA410C1CF5001F02D28E
:10283000084600F0C2BA70B500F070F900000089D7
:10284000FFF7F6BF4FF00040A0F580007047000092
:1028500010B591EA030F48BF83F0004300F1BA813D
:10286000841A71EB030C05D2121943EB0C03001B05
:1028700061EB0C014FEA1154A4EB135CDFF81CE18F
:102880001EEA430F18BF9EEA445F00F0748021EAFD
:10289000045123EA0E0343F48013DCF1200E32D3FB
:1028A00022FA0CFE10EB0E0023FA0CFE41EB0E0197
:1028B000CCF1200E03FA0EFE10EB0E00CCF1200E30
:1028C00051F10001B1F5801F32D201EB045112FA2F
:1028D0000EF2BDE8104058BF7047401C38BF5FEA99
:1028E000420218BF7047002814BF20F0010041F1D8
:1028F00000014FEA410313F5001F38BF7047A1F1F3
:10290000C04100F059B9012A43EB0302ACF1200C9D
:10291000DCF11F0E32BF4FF0000E23FA0CF310EB68
:10292000030041EB0451B4EB115FD0D0A1EB045193
:1029300001F58011490801EB04515FEA30000ED324
:1029400050F1000038BF12FA0EFE08D1BDE8104069
:10295000C9E7401C38BF5FEA4202CAD1C3E7BDE8FD
:1029600010404FEA410313F5001F38BF7047A1F133
:10297000C04100F021B99EEA445F08D011EA5E0F21
:10298000BDE8104004BF01F0004100207047BDE8E1
:10299000104070B500F0C2F864FBBE3E0000E0FFDE
:1029A000B0FA80F310FA03F10AD0C3F11D0303F566
:1029B00080634FEA03524FEA415002EBD121704746
:1029C0004FF000007047000070B5DFF848C11CEA06
:1029D000111E1EBF1CEA13159EEA0C0F95EA0C0F80
:1029E00000F06F8081EA03044EEAD47EAE4421EA0F
:1029F0004C1123EA4C1341F4801143F48013AEF1DF
:102A00007F7EA1FB024CA0FB0365361955EB0C053C
:102A1000A1FB034C4CF10003A0FB021C16EB0C06BF
:102A2000654153F10003094218BF46F0010613F453
:102A3000007F0BD14FEA03314FEA053041EA1551CF
:102A400040EA165034036FF003020AE04FEAC32154
:102A50004FEAC52041EA555140EA5650F4026FF062
:102A6000020202EB2E4201EB025585EACE710AD03A
:102A70005FEA440C18BF24F0004450F1000041F11B
:102A8000000120EAD47040F2FE7C624500D270BDA5
:102A9000A84214BF4FF080444FF04044002E08BFBE
:102AA0000024BEF1806FA8BFA1F1C041BDE8704015
:102AB00080F2828001F1C04101F000414FF000003E
:102AC00070470CEA13159EEA0C0F18BF95EA0C0F1D
:102AD00006D081EA030E4FF000000EF0004170BDF9
:102AE00000F01CF88900013E00F007B800F009B8BA
:102AF0004FEA430C5FEA5C5C08D081EA030100F016
:102B00005BB84FEA410C5FEA5C5CF6D102494FF0DA
:102B1000000070470000FF070000F87F0EF1020E72
:102B20002EF0030E5EF8046B364205D4012A43EB07
:102B3000030515F5001F12D8012841EB010C1CF507
:102B4000001F0CD80ED14FEAD17C0CEB4C0C0CF1D1
:102B5000020C15F5001F08BF4CEBD37C04E04FF0CE
:102B6000080C01E04FEAD37C0CEB4C0526FA05F685
:102B700006F00706B6F1040C06D20EEB860CBDE893
:102B800070404CF0010C6047DFE80CF0090B0202CA
:102B90004FF00041A1F500214FF0000070BD194633
:102BA0001046012851EB010418BFD4F5001484BF6E
:102BB000002001F0004170BD0808A0F500114FEAA7
:102BC0003101704710B591EA030F48BF83F000430D
:102BD0003FF546AE841A71EB030C07D28CF0004C23
:102BE000121943EB0C03001B61EB0C014FEA11546B
:102BF000A4EB135CDFF8A4E11EEA430F18BF9EEAC2
:102C0000445F00F0B48021EA045123EA6E0352428B
:102C1000C3EB6E0338BF5B1EDCF1200E25D322FA16
:102C20000CFE10EB0E0043FA0CFE41EB0E01CCF152
:102C3000200E03FA0EFE10EB0E00CCF1200E51F127
:102C4000000129D401EB045112FA0EF2BDE8104044
:102C500058BF7047401C1CBFB2F1004F704700289E
:102C60000CBF491C20F00100704712EB020E43EB31
:102C7000030218BF4FF0010E4EEA4202ACF1200CE5
:102C8000DCF11E0E56D943FA0CFE10EB0E00CCF10F
:102C90001E0E51F1FF31D5D50EF1010E12FA0EFEC6
:102CA000404141EB010101EB445C5FEA5C5C10D9FF
:102CB00001EB045110EBDE7038BFBEF1004FBDE8F0
:102CC000104018BF704700280CBF491C20F00100BD
:102CD000704734D24FEAD42C24F4006411F500116B
:102CE0001BD0B1FA81F20B3AA41AA41ED2F1200330
:102CF000914030FA03F31943904001EBCC7101EBA2
:102D00000451002CBDE81040A8BF704701F1C0413C
:102D100001F000414FF000007047B0FA80F310FA64
:102D200003F102D1BDE810407047E41A173C480592
:102D3000C90AE2E701EB0451BDE8104070474910B1
:102D40004FEA300001EB0451BDE8104002E04FF0C3
:102D5000000170474A0008BF0042F8D0B2F5001FDA
:102D600028BF704701F000414FF0000070479EEA15
:102D7000445F07D011EA5E0FBDE8104004BF002198
:102D800000207047BDE8104070B5FFF7C7FE00BFD8
:102D900040DFF63E104683F0004170470000E0FF40
:102DA000F1EE100A4FF6FF71C0F2C03120EA0100C7
:102DB00040F04070E1EE100A7047FF2141EAD05028
:102DC000C00570470000000000000000010203047D
:102DD000060708090000000001020304002E000895
:102DE000000000201000000028020008102E00083B
:102DF00010000020D8070000480200080000000072
:102E000001000000100000000024F4000000000099
:04000005080001C529
:00000001FF
